{"abi":[{"type":"constructor","inputs":[{"name":"_name","type":"string","internalType":"string"},{"name":"_symbol","type":"string","internalType":"string"},{"name":"_strikePrice","type":"uint256","internalType":"uint256"},{"name":"_expirationDate","type":"uint256","internalType":"uint256"},{"name":"_underlyingAsset","type":"address","internalType":"address"}],"stateMutability":"nonpayable"},{"type":"receive","stateMutability":"payable"},{"type":"function","name":"allowance","inputs":[{"name":"owner","type":"address","internalType":"address"},{"name":"spender","type":"address","internalType":"address"}],"outputs":[{"name":"","type":"uint256","internalType":"uint256"}],"stateMutability":"view"},{"type":"function","name":"approve","inputs":[{"name":"spender","type":"address","internalType":"address"},{"name":"value","type":"uint256","internalType":"uint256"}],"outputs":[{"name":"","type":"bool","internalType":"bool"}],"stateMutability":"nonpayable"},{"type":"function","name":"balanceOf","inputs":[{"name":"account","type":"address","internalType":"address"}],"outputs":[{"name":"","type":"uint256","internalType":"uint256"}],"stateMutability":"view"},{"type":"function","name":"calculateExerciseCost","inputs":[{"name":"_optionAmount","type":"uint256","internalType":"uint256"}],"outputs":[{"name":"","type":"uint256","internalType":"uint256"}],"stateMutability":"view"},{"type":"function","name":"decimals","inputs":[],"outputs":[{"name":"","type":"uint8","internalType":"uint8"}],"stateMutability":"view"},{"type":"function","name":"emergencyWithdraw","inputs":[],"outputs":[],"stateMutability":"nonpayable"},{"type":"function","name":"exercise","inputs":[{"name":"_optionAmount","type":"uint256","internalType":"uint256"}],"outputs":[],"stateMutability":"payable"},{"type":"function","name":"expirationDate","inputs":[],"outputs":[{"name":"","type":"uint256","internalType":"uint256"}],"stateMutability":"view"},{"type":"function","name":"expireOptions","inputs":[],"outputs":[],"stateMutability":"nonpayable"},{"type":"function","name":"expired","inputs":[],"outputs":[{"name":"","type":"bool","internalType":"bool"}],"stateMutability":"view"},{"type":"function","name":"getContractBalance","inputs":[],"outputs":[{"name":"","type":"uint256","internalType":"uint256"}],"stateMutability":"view"},{"type":"function","name":"getOptionInfo","inputs":[],"outputs":[{"name":"_strikePrice","type":"uint256","internalType":"uint256"},{"name":"_expirationDate","type":"uint256","internalType":"uint256"},{"name":"_totalSupply","type":"uint256","internalType":"uint256"},{"name":"_totalUnderlying","type":"uint256","internalType":"uint256"},{"name":"_expired","type":"bool","internalType":"bool"},{"name":"_canExercise","type":"bool","internalType":"bool"}],"stateMutability":"view"},{"type":"function","name":"isExercisePeriod","inputs":[],"outputs":[{"name":"","type":"bool","internalType":"bool"}],"stateMutability":"view"},{"type":"function","name":"issueOptions","inputs":[{"name":"_underlyingAmount","type":"uint256","internalType":"uint256"}],"outputs":[],"stateMutability":"payable"},{"type":"function","name":"name","inputs":[],"outputs":[{"name":"","type":"string","internalType":"string"}],"stateMutability":"view"},{"type":"function","name":"owner","inputs":[],"outputs":[{"name":"","type":"address","internalType":"address"}],"stateMutability":"view"},{"type":"function","name":"renounceOwnership","inputs":[],"outputs":[],"stateMutability":"nonpayable"},{"type":"function","name":"strikePrice","inputs":[],"outputs":[{"name":"","type":"uint256","internalType":"uint256"}],"stateMutability":"view"},{"type":"function","name":"symbol","inputs":[],"outputs":[{"name":"","type":"string","internalType":"string"}],"stateMutability":"view"},{"type":"function","name":"totalSupply","inputs":[],"outputs":[{"name":"","type":"uint256","internalType":"uint256"}],"stateMutability":"view"},{"type":"function","name":"totalUnderlyingDeposited","inputs":[],"outputs":[{"name":"","type":"uint256","internalType":"uint256"}],"stateMutability":"view"},{"type":"function","name":"transfer","inputs":[{"name":"to","type":"address","internalType":"address"},{"name":"value","type":"uint256","internalType":"uint256"}],"outputs":[{"name":"","type":"bool","internalType":"bool"}],"stateMutability":"nonpayable"},{"type":"function","name":"transferFrom","inputs":[{"name":"from","type":"address","internalType":"address"},{"name":"to","type":"address","internalType":"address"},{"name":"value","type":"uint256","internalType":"uint256"}],"outputs":[{"name":"","type":"bool","internalType":"bool"}],"stateMutability":"nonpayable"},{"type":"function","name":"transferOwnership","inputs":[{"name":"newOwner","type":"address","internalType":"address"}],"outputs":[],"stateMutability":"nonpayable"},{"type":"function","name":"underlyingAsset","inputs":[],"outputs":[{"name":"","type":"address","internalType":"address"}],"stateMutability":"view"},{"type":"event","name":"Approval","inputs":[{"name":"owner","type":"address","indexed":true,"internalType":"address"},{"name":"spender","type":"address","indexed":true,"internalType":"address"},{"name":"value","type":"uint256","indexed":false,"internalType":"uint256"}],"anonymous":false},{"type":"event","name":"OptionsExercised","inputs":[{"name":"exerciser","type":"address","indexed":true,"internalType":"address"},{"name":"optionTokens","type":"uint256","indexed":false,"internalType":"uint256"},{"name":"underlyingReceived","type":"uint256","indexed":false,"internalType":"uint256"},{"name":"paymentMade","type":"uint256","indexed":false,"internalType":"uint256"}],"anonymous":false},{"type":"event","name":"OptionsExpired","inputs":[{"name":"owner","type":"address","indexed":true,"internalType":"address"},{"name":"underlyingRedeemed","type":"uint256","indexed":false,"internalType":"uint256"}],"anonymous":false},{"type":"event","name":"OptionsIssued","inputs":[{"name":"issuer","type":"address","indexed":true,"internalType":"address"},{"name":"underlyingAmount","type":"uint256","indexed":false,"internalType":"uint256"},{"name":"optionTokens","type":"uint256","indexed":false,"internalType":"uint256"}],"anonymous":false},{"type":"event","name":"OwnershipTransferred","inputs":[{"name":"previousOwner","type":"address","indexed":true,"internalType":"address"},{"name":"newOwner","type":"address","indexed":true,"internalType":"address"}],"anonymous":false},{"type":"event","name":"Transfer","inputs":[{"name":"from","type":"address","indexed":true,"internalType":"address"},{"name":"to","type":"address","indexed":true,"internalType":"address"},{"name":"value","type":"uint256","indexed":false,"internalType":"uint256"}],"anonymous":false},{"type":"error","name":"ERC20InsufficientAllowance","inputs":[{"name":"spender","type":"address","internalType":"address"},{"name":"allowance","type":"uint256","internalType":"uint256"},{"name":"needed","type":"uint256","internalType":"uint256"}]},{"type":"error","name":"ERC20InsufficientBalance","inputs":[{"name":"sender","type":"address","internalType":"address"},{"name":"balance","type":"uint256","internalType":"uint256"},{"name":"needed","type":"uint256","internalType":"uint256"}]},{"type":"error","name":"ERC20InvalidApprover","inputs":[{"name":"approver","type":"address","internalType":"address"}]},{"type":"error","name":"ERC20InvalidReceiver","inputs":[{"name":"receiver","type":"address","internalType":"address"}]},{"type":"error","name":"ERC20InvalidSender","inputs":[{"name":"sender","type":"address","internalType":"address"}]},{"type":"error","name":"ERC20InvalidSpender","inputs":[{"name":"spender","type":"address","internalType":"address"}]},{"type":"error","name":"InsufficientBalance","inputs":[]},{"type":"error","name":"InsufficientPayment","inputs":[]},{"type":"error","name":"NoUnderlyingToRedeem","inputs":[]},{"type":"error","name":"NotExercisePeriod","inputs":[]},{"type":"error","name":"OptionExpired","inputs":[]},{"type":"error","name":"OptionNotExpired","inputs":[]},{"type":"error","name":"OwnableInvalidOwner","inputs":[{"name":"owner","type":"address","internalType":"address"}]},{"type":"error","name":"OwnableUnauthorizedAccount","inputs":[{"name":"account","type":"address","internalType":"address"}]},{"type":"error","name":"ReentrancyGuardReentrantCall","inputs":[]},{"type":"error","name":"TransferFailed","inputs":[]}],"bytecode":{"object":"0x60e060405234801561000f575f5ffd5b50604051612b4d380380612b4d8339818101604052810190610031919061044d565b33858581600390816100439190610703565b5080600490816100539190610703565b5050505f73ffffffffffffffffffffffffffffffffffffffff168173ffffffffffffffffffffffffffffffffffffffff16036100c6575f6040517f1e4fbdf70000000000000000000000000000000000000000000000000000000081526004016100bd91906107e1565b60405180910390fd5b6100d5816101b060201b60201c565b5060016006819055505f8311610120576040517f08c379a00000000000000000000000000000000000000000000000000000000081526004016101179061087a565b60405180910390fd5b428211610162576040517f08c379a000000000000000000000000000000000000000000000000000000000815260040161015990610908565b60405180910390fd5b82608081815250508160a081815250508073ffffffffffffffffffffffffffffffffffffffff1660c08173ffffffffffffffffffffffffffffffffffffffff16815250505050505050610926565b5f60055f9054906101000a900473ffffffffffffffffffffffffffffffffffffffff1690508160055f6101000a81548173ffffffffffffffffffffffffffffffffffffffff021916908373ffffffffffffffffffffffffffffffffffffffff1602179055508173ffffffffffffffffffffffffffffffffffffffff168173ffffffffffffffffffffffffffffffffffffffff167f8be0079c531659141344cd1fd0a4f28419497f9722a3daafe3b4186f6b6457e060405160405180910390a35050565b5f604051905090565b5f5ffd5b5f5ffd5b5f5ffd5b5f5ffd5b5f601f19601f8301169050919050565b7f4e487b71000000000000000000000000000000000000000000000000000000005f52604160045260245ffd5b6102d28261028c565b810181811067ffffffffffffffff821117156102f1576102f061029c565b5b80604052505050565b5f610303610273565b905061030f82826102c9565b919050565b5f67ffffffffffffffff82111561032e5761032d61029c565b5b6103378261028c565b9050602081019050919050565b8281835e5f83830152505050565b5f61036461035f84610314565b6102fa565b9050828152602081018484840111156103805761037f610288565b5b61038b848285610344565b509392505050565b5f82601f8301126103a7576103a6610284565b5b81516103b7848260208601610352565b91505092915050565b5f819050919050565b6103d2816103c0565b81146103dc575f5ffd5b50565b5f815190506103ed816103c9565b92915050565b5f73ffffffffffffffffffffffffffffffffffffffff82169050919050565b5f61041c826103f3565b9050919050565b61042c81610412565b8114610436575f5ffd5b50565b5f8151905061044781610423565b92915050565b5f5f5f5f5f60a086880312156104665761046561027c565b5b5f86015167ffffffffffffffff81111561048357610482610280565b5b61048f88828901610393565b955050602086015167ffffffffffffffff8111156104b0576104af610280565b5b6104bc88828901610393565b94505060406104cd888289016103df565b93505060606104de888289016103df565b92505060806104ef88828901610439565b9150509295509295909350565b5f81519050919050565b7f4e487b71000000000000000000000000000000000000000000000000000000005f52602260045260245ffd5b5f600282049050600182168061054a57607f821691505b60208210810361055d5761055c610506565b5b50919050565b5f819050815f5260205f209050919050565b5f6020601f8301049050919050565b5f82821b905092915050565b5f600883026105bf7fffffffffffffffffffffffffffffffffffffffffffffffffffffffffffffffff82610584565b6105c98683610584565b95508019841693508086168417925050509392505050565b5f819050919050565b5f6106046105ff6105fa846103c0565b6105e1565b6103c0565b9050919050565b5f819050919050565b61061d836105ea565b6106316106298261060b565b848454610590565b825550505050565b5f5f905090565b610648610639565b610653818484610614565b505050565b5b818110156106765761066b5f82610640565b600181019050610659565b5050565b601f8211156106bb5761068c81610563565b61069584610575565b810160208510156106a4578190505b6106b86106b085610575565b830182610658565b50505b505050565b5f82821c905092915050565b5f6106db5f19846008026106c0565b1980831691505092915050565b5f6106f383836106cc565b9150826002028217905092915050565b61070c826104fc565b67ffffffffffffffff8111156107255761072461029c565b5b61072f8254610533565b61073a82828561067a565b5f60209050601f83116001811461076b575f8415610759578287015190505b61076385826106e8565b8655506107ca565b601f19841661077986610563565b5f5b828110156107a05784890151825560018201915060208501945060208101905061077b565b868310156107bd57848901516107b9601f8916826106cc565b8355505b6001600288020188555050505b505050505050565b6107db81610412565b82525050565b5f6020820190506107f45f8301846107d2565b92915050565b5f82825260208201905092915050565b7f537472696b65207072696365206d7573742062652067726561746572207468615f8201527f6e20300000000000000000000000000000000000000000000000000000000000602082015250565b5f6108646023836107fa565b915061086f8261080a565b604082019050919050565b5f6020820190508181035f83015261089181610858565b9050919050565b7f45787069726174696f6e2064617465206d75737420626520696e2074686520665f8201527f7574757265000000000000000000000000000000000000000000000000000000602082015250565b5f6108f26025836107fa565b91506108fd82610898565b604082019050919050565b5f6020820190508181035f83015261091f816108e6565b9050919050565b60805160a05160c0516121c56109885f395f818161075f015261093f01525f818161098b01528181610eff01528181611181015281816111fa015261123201525f81816105b101528181610b3901528181610d8a015261116001526121c55ff3fe608060405260043610610169575f3560e01c80638da5cb5b116100d0578063c52987cf11610089578063eaa2b0b511610063578063eaa2b0b51461050e578063f2fde38b14610524578063f960f4c71461054c578063fee183a01461057b57610170565b8063c52987cf14610492578063db2e21bc146104bc578063dd62ed3e146104d257610170565b80638da5cb5b146103925780638f620487146103bc57806395d89b41146103e6578063a9059cbb14610410578063b07f0a411461044c578063b82c064d1461046857610170565b80634c2067c7116101225780634c2067c7146102a65780634ed7157a146102d05780636f9fb98a146102ec57806370a0823114610316578063715018a6146103525780637158da7c1461036857610170565b80630410582b1461017457806306fdde03146101b0578063095ea7b3146101da57806318160ddd1461021657806323b872dd14610240578063313ce5671461027c57610170565b3661017057005b5f5ffd5b34801561017f575f5ffd5b5061019a60048036038101906101959190611aaf565b6105a5565b6040516101a79190611ae9565b60405180910390f35b3480156101bb575f5ffd5b506101c46105ec565b6040516101d19190611b72565b60405180910390f35b3480156101e5575f5ffd5b5061020060048036038101906101fb9190611bec565b61067c565b60405161020d9190611c44565b60405180910390f35b348015610221575f5ffd5b5061022a61069e565b6040516102379190611ae9565b60405180910390f35b34801561024b575f5ffd5b5061026660048036038101906102619190611c5d565b6106a7565b6040516102739190611c44565b60405180910390f35b348015610287575f5ffd5b506102906106d5565b60405161029d9190611cc8565b60405180910390f35b3480156102b1575f5ffd5b506102ba6106dd565b6040516102c79190611c44565b60405180910390f35b6102ea60048036038101906102e59190611aaf565b6106ef565b005b3480156102f7575f5ffd5b506103006108de565b60405161030d9190611ae9565b60405180910390f35b348015610321575f5ffd5b5061033c60048036038101906103379190611ce1565b6108e5565b6040516103499190611ae9565b60405180910390f35b34801561035d575f5ffd5b5061036661092a565b005b348015610373575f5ffd5b5061037c61093d565b6040516103899190611d1b565b60405180910390f35b34801561039d575f5ffd5b506103a6610961565b6040516103b39190611d1b565b60405180910390f35b3480156103c7575f5ffd5b506103d0610989565b6040516103dd9190611ae9565b60405180910390f35b3480156103f1575f5ffd5b506103fa6109ad565b6040516104079190611b72565b60405180910390f35b34801561041b575f5ffd5b5061043660048036038101906104319190611bec565b610a3d565b6040516104439190611c44565b60405180910390f35b61046660048036038101906104619190611aaf565b610a5f565b005b348015610473575f5ffd5b5061047c610d82565b6040516104899190611ae9565b60405180910390f35b34801561049d575f5ffd5b506104a6610d88565b6040516104b39190611ae9565b60405180910390f35b3480156104c7575f5ffd5b506104d0610dac565b005b3480156104dd575f5ffd5b506104f860048036038101906104f39190611d34565b610e6b565b6040516105059190611ae9565b60405180910390f35b348015610519575f5ffd5b50610522610eed565b005b34801561052f575f5ffd5b5061054a60048036038101906105459190611ce1565b6110d4565b005b348015610557575f5ffd5b50610560611158565b60405161057296959493929190611d72565b60405180910390f35b348015610586575f5ffd5b5061058f6111ee565b60405161059c9190611c44565b60405180910390f35b5f670de0b6b3a76400007f0000000000000000000000000000000000000000000000000000000000000000836105db9190611dfe565b6105e59190611e6c565b9050919050565b6060600380546105fb90611ec9565b80601f016020809104026020016040519081016040528092919081815260200182805461062790611ec9565b80156106725780601f1061064957610100808354040283529160200191610672565b820191905f5260205f20905b81548152906001019060200180831161065557829003601f168201915b5050505050905090565b5f5f61068661125c565b9050610693818585611263565b600191505092915050565b5f600254905090565b5f5f6106b161125c565b90506106be858285611275565b6106c9858585611308565b60019150509392505050565b5f6012905090565b60075f9054906101000a900460ff1681565b6106f76113f8565b6106ff61147f565b60075f9054906101000a900460ff1615610745576040517f7676819d00000000000000000000000000000000000000000000000000000000815260040160405180910390fd5b5f5f73ffffffffffffffffffffffffffffffffffffffff167f000000000000000000000000000000000000000000000000000000000000000073ffffffffffffffffffffffffffffffffffffffff16036107e3573490508181146107de576040517f08c379a00000000000000000000000000000000000000000000000000000000081526004016107d590611f43565b60405180910390fd5b61081e565b6040517f08c379a000000000000000000000000000000000000000000000000000000000815260040161081590611fd1565b60405180910390fd5b5f8111610860576040517f08c379a000000000000000000000000000000000000000000000000000000000815260040161085790612039565b60405180910390fd5b8060085f8282546108719190612057565b9250508190555061088233826114c5565b3373ffffffffffffffffffffffffffffffffffffffff167fa96e11769b957c56147231e09d6ff272fe1ad6e54f856b0e8a13172e438a7c6982836040516108ca92919061208a565b60405180910390a2506108db611544565b50565b5f47905090565b5f5f5f8373ffffffffffffffffffffffffffffffffffffffff1673ffffffffffffffffffffffffffffffffffffffff1681526020019081526020015f20549050919050565b6109326113f8565b61093b5f61154e565b565b7f000000000000000000000000000000000000000000000000000000000000000081565b5f60055f9054906101000a900473ffffffffffffffffffffffffffffffffffffffff16905090565b7f000000000000000000000000000000000000000000000000000000000000000081565b6060600480546109bc90611ec9565b80601f01602080910402602001604051908101604052809291908181526020018280546109e890611ec9565b8015610a335780601f10610a0a57610100808354040283529160200191610a33565b820191905f5260205f20905b815481529060010190602001808311610a1657829003601f168201915b5050505050905090565b5f5f610a4761125c565b9050610a54818585611308565b600191505092915050565b610a6761147f565b60075f9054906101000a900460ff1615610aad576040517f7676819d00000000000000000000000000000000000000000000000000000000815260040160405180910390fd5b610ab56111ee565b610aeb576040517f0e9fb2b300000000000000000000000000000000000000000000000000000000815260040160405180910390fd5b80610af5336108e5565b1015610b2d576040517ff4d678b800000000000000000000000000000000000000000000000000000000815260040160405180910390fd5b5f670de0b6b3a76400007f000000000000000000000000000000000000000000000000000000000000000083610b639190611dfe565b610b6d9190611e6c565b905080341015610ba9576040517fcd1c886700000000000000000000000000000000000000000000000000000000815260040160405180910390fd5b610bb33383611611565b8160085f828254610bc491906120b1565b925050819055505f8134610bd891906120b1565b90505f811115610c83575f3373ffffffffffffffffffffffffffffffffffffffff1682604051610c0790612111565b5f6040518083038185875af1925050503d805f8114610c41576040519150601f19603f3d011682016040523d82523d5f602084013e610c46565b606091505b5050905080610c81576040517f90b8ec1800000000000000000000000000000000000000000000000000000000815260040160405180910390fd5b505b5f3373ffffffffffffffffffffffffffffffffffffffff1684604051610ca890612111565b5f6040518083038185875af1925050503d805f8114610ce2576040519150601f19603f3d011682016040523d82523d5f602084013e610ce7565b606091505b5050905080610d22576040517f90b8ec1800000000000000000000000000000000000000000000000000000000815260040160405180910390fd5b3373ffffffffffffffffffffffffffffffffffffffff167fb26585d77b0dbc8899f7ec76cbbccd505cb735736e517fefea1031657b575655858686604051610d6c93929190612125565b60405180910390a2505050610d7f611544565b50565b60085481565b7f000000000000000000000000000000000000000000000000000000000000000081565b610db46113f8565b5f4790505f811115610e68575f610dc9610961565b73ffffffffffffffffffffffffffffffffffffffff1682604051610dec90612111565b5f6040518083038185875af1925050503d805f8114610e26576040519150601f19603f3d011682016040523d82523d5f602084013e610e2b565b606091505b5050905080610e66576040517f90b8ec1800000000000000000000000000000000000000000000000000000000815260040160405180910390fd5b505b50565b5f60015f8473ffffffffffffffffffffffffffffffffffffffff1673ffffffffffffffffffffffffffffffffffffffff1681526020019081526020015f205f8373ffffffffffffffffffffffffffffffffffffffff1673ffffffffffffffffffffffffffffffffffffffff1681526020019081526020015f2054905092915050565b610ef56113f8565b610efd61147f565b7f0000000000000000000000000000000000000000000000000000000000000000421015610f57576040517f29be739800000000000000000000000000000000000000000000000000000000815260040160405180910390fd5b60075f9054906101000a900460ff1615610f9d576040517f7676819d00000000000000000000000000000000000000000000000000000000815260040160405180910390fd5b600160075f6101000a81548160ff0219169083151502179055505f60085490505f811115611074575f6008819055505f610fd5610961565b73ffffffffffffffffffffffffffffffffffffffff1682604051610ff890612111565b5f6040518083038185875af1925050503d805f8114611032576040519150601f19603f3d011682016040523d82523d5f602084013e611037565b606091505b5050905080611072576040517f90b8ec1800000000000000000000000000000000000000000000000000000000815260040160405180910390fd5b505b61107c610961565b73ffffffffffffffffffffffffffffffffffffffff167f803d3da83a02d0cc783e792f70556fa45b339b1a44866964b381932d085994d0826040516110c19190611ae9565b60405180910390a2506110d2611544565b565b6110dc6113f8565b5f73ffffffffffffffffffffffffffffffffffffffff168173ffffffffffffffffffffffffffffffffffffffff160361114c575f6040517f1e4fbdf70000000000000000000000000000000000000000000000000000000081526004016111439190611d1b565b60405180910390fd5b6111558161154e565b50565b5f5f5f5f5f5f7f00000000000000000000000000000000000000000000000000000000000000007f00000000000000000000000000000000000000000000000000000000000000006111a861069e565b60085460075f9054906101000a900460ff166111c26111ee565b80156111da575060075f9054906101000a900460ff16155b955095509550955095509550909192939495565b5f5f4290505f620151807f000000000000000000000000000000000000000000000000000000000000000061122391906120b1565b905080821015801561125557507f00000000000000000000000000000000000000000000000000000000000000008211155b9250505090565b5f33905090565b6112708383836001611690565b505050565b5f6112808484610e6b565b90507fffffffffffffffffffffffffffffffffffffffffffffffffffffffffffffffff81101561130257818110156112f3578281836040517ffb8f41b20000000000000000000000000000000000000000000000000000000081526004016112ea9392919061215a565b60405180910390fd5b61130184848484035f611690565b5b50505050565b5f73ffffffffffffffffffffffffffffffffffffffff168373ffffffffffffffffffffffffffffffffffffffff1603611378575f6040517f96c6fd1e00000000000000000000000000000000000000000000000000000000815260040161136f9190611d1b565b60405180910390fd5b5f73ffffffffffffffffffffffffffffffffffffffff168273ffffffffffffffffffffffffffffffffffffffff16036113e8575f6040517fec442f050000000000000000000000000000000000000000000000000000000081526004016113df9190611d1b565b60405180910390fd5b6113f383838361185f565b505050565b61140061125c565b73ffffffffffffffffffffffffffffffffffffffff1661141e610961565b73ffffffffffffffffffffffffffffffffffffffff161461147d5761144161125c565b6040517f118cdaa70000000000000000000000000000000000000000000000000000000081526004016114749190611d1b565b60405180910390fd5b565b6002600654036114bb576040517f3ee5aeb500000000000000000000000000000000000000000000000000000000815260040160405180910390fd5b6002600681905550565b5f73ffffffffffffffffffffffffffffffffffffffff168273ffffffffffffffffffffffffffffffffffffffff1603611535575f6040517fec442f0500000000000000000000000000000000000000000000000000000000815260040161152c9190611d1b565b60405180910390fd5b6115405f838361185f565b5050565b6001600681905550565b5f60055f9054906101000a900473ffffffffffffffffffffffffffffffffffffffff1690508160055f6101000a81548173ffffffffffffffffffffffffffffffffffffffff021916908373ffffffffffffffffffffffffffffffffffffffff1602179055508173ffffffffffffffffffffffffffffffffffffffff168173ffffffffffffffffffffffffffffffffffffffff167f8be0079c531659141344cd1fd0a4f28419497f9722a3daafe3b4186f6b6457e060405160405180910390a35050565b5f73ffffffffffffffffffffffffffffffffffffffff168273ffffffffffffffffffffffffffffffffffffffff1603611681575f6040517f96c6fd1e0000000000000000000000000000000000000000000000000000000081526004016116789190611d1b565b60405180910390fd5b61168c825f8361185f565b5050565b5f73ffffffffffffffffffffffffffffffffffffffff168473ffffffffffffffffffffffffffffffffffffffff1603611700575f6040517fe602df050000000000000000000000000000000000000000000000000000000081526004016116f79190611d1b565b60405180910390fd5b5f73ffffffffffffffffffffffffffffffffffffffff168373ffffffffffffffffffffffffffffffffffffffff1603611770575f6040517f94280d620000000000000000000000000000000000000000000000000000000081526004016117679190611d1b565b60405180910390fd5b8160015f8673ffffffffffffffffffffffffffffffffffffffff1673ffffffffffffffffffffffffffffffffffffffff1681526020019081526020015f205f8573ffffffffffffffffffffffffffffffffffffffff1673ffffffffffffffffffffffffffffffffffffffff1681526020019081526020015f20819055508015611859578273ffffffffffffffffffffffffffffffffffffffff168473ffffffffffffffffffffffffffffffffffffffff167f8c5be1e5ebec7d5bd14f71427d1e84f3dd0314c0f7b2291e5b200ac8c7c3b925846040516118509190611ae9565b60405180910390a35b50505050565b5f73ffffffffffffffffffffffffffffffffffffffff168373ffffffffffffffffffffffffffffffffffffffff16036118af578060025f8282546118a39190612057565b9250508190555061197d565b5f5f5f8573ffffffffffffffffffffffffffffffffffffffff1673ffffffffffffffffffffffffffffffffffffffff1681526020019081526020015f2054905081811015611938578381836040517fe450d38c00000000000000000000000000000000000000000000000000000000815260040161192f9392919061215a565b60405180910390fd5b8181035f5f8673ffffffffffffffffffffffffffffffffffffffff1673ffffffffffffffffffffffffffffffffffffffff1681526020019081526020015f2081905550505b5f73ffffffffffffffffffffffffffffffffffffffff168273ffffffffffffffffffffffffffffffffffffffff16036119c4578060025f8282540392505081905550611a0e565b805f5f8473ffffffffffffffffffffffffffffffffffffffff1673ffffffffffffffffffffffffffffffffffffffff1681526020019081526020015f205f82825401925050819055505b8173ffffffffffffffffffffffffffffffffffffffff168373ffffffffffffffffffffffffffffffffffffffff167fddf252ad1be2c89b69c2b068fc378daa952ba7f163c4a11628f55a4df523b3ef83604051611a6b9190611ae9565b60405180910390a3505050565b5f5ffd5b5f819050919050565b611a8e81611a7c565b8114611a98575f5ffd5b50565b5f81359050611aa981611a85565b92915050565b5f60208284031215611ac457611ac3611a78565b5b5f611ad184828501611a9b565b91505092915050565b611ae381611a7c565b82525050565b5f602082019050611afc5f830184611ada565b92915050565b5f81519050919050565b5f82825260208201905092915050565b8281835e5f83830152505050565b5f601f19601f8301169050919050565b5f611b4482611b02565b611b4e8185611b0c565b9350611b5e818560208601611b1c565b611b6781611b2a565b840191505092915050565b5f6020820190508181035f830152611b8a8184611b3a565b905092915050565b5f73ffffffffffffffffffffffffffffffffffffffff82169050919050565b5f611bbb82611b92565b9050919050565b611bcb81611bb1565b8114611bd5575f5ffd5b50565b5f81359050611be681611bc2565b92915050565b5f5f60408385031215611c0257611c01611a78565b5b5f611c0f85828601611bd8565b9250506020611c2085828601611a9b565b9150509250929050565b5f8115159050919050565b611c3e81611c2a565b82525050565b5f602082019050611c575f830184611c35565b92915050565b5f5f5f60608486031215611c7457611c73611a78565b5b5f611c8186828701611bd8565b9350506020611c9286828701611bd8565b9250506040611ca386828701611a9b565b9150509250925092565b5f60ff82169050919050565b611cc281611cad565b82525050565b5f602082019050611cdb5f830184611cb9565b92915050565b5f60208284031215611cf657611cf5611a78565b5b5f611d0384828501611bd8565b91505092915050565b611d1581611bb1565b82525050565b5f602082019050611d2e5f830184611d0c565b92915050565b5f5f60408385031215611d4a57611d49611a78565b5b5f611d5785828601611bd8565b9250506020611d6885828601611bd8565b9150509250929050565b5f60c082019050611d855f830189611ada565b611d926020830188611ada565b611d9f6040830187611ada565b611dac6060830186611ada565b611db96080830185611c35565b611dc660a0830184611c35565b979650505050505050565b7f4e487b71000000000000000000000000000000000000000000000000000000005f52601160045260245ffd5b5f611e0882611a7c565b9150611e1383611a7c565b9250828202611e2181611a7c565b91508282048414831517611e3857611e37611dd1565b5b5092915050565b7f4e487b71000000000000000000000000000000000000000000000000000000005f52601260045260245ffd5b5f611e7682611a7c565b9150611e8183611a7c565b925082611e9157611e90611e3f565b5b828204905092915050565b7f4e487b71000000000000000000000000000000000000000000000000000000005f52602260045260245ffd5b5f6002820490506001821680611ee057607f821691505b602082108103611ef357611ef2611e9c565b5b50919050565b7f45544820616d6f756e74206d69736d61746368000000000000000000000000005f82015250565b5f611f2d601383611b0c565b9150611f3882611ef9565b602082019050919050565b5f6020820190508181035f830152611f5a81611f21565b9050919050565b7f455243323020756e6465726c79696e6720617373657473206e6f7420696d706c5f8201527f656d656e74656420796574000000000000000000000000000000000000000000602082015250565b5f611fbb602b83611b0c565b9150611fc682611f61565b604082019050919050565b5f6020820190508181035f830152611fe881611faf565b9050919050565b7f4d757374206465706f73697420756e6465726c79696e672061737365747300005f82015250565b5f612023601e83611b0c565b915061202e82611fef565b602082019050919050565b5f6020820190508181035f83015261205081612017565b9050919050565b5f61206182611a7c565b915061206c83611a7c565b925082820190508082111561208457612083611dd1565b5b92915050565b5f60408201905061209d5f830185611ada565b6120aa6020830184611ada565b9392505050565b5f6120bb82611a7c565b91506120c683611a7c565b92508282039050818111156120de576120dd611dd1565b5b92915050565b5f81905092915050565b50565b5f6120fc5f836120e4565b9150612107826120ee565b5f82019050919050565b5f61211b826120f1565b9150819050919050565b5f6060820190506121385f830186611ada565b6121456020830185611ada565b6121526040830184611ada565b949350505050565b5f60608201905061216d5f830186611d0c565b61217a6020830185611ada565b6121876040830184611ada565b94935050505056fea26469706673582212209c2f588d00b873c32da6641217386369e0fc40b20e0f816baedecf34cf015f2e64736f6c634300081e0033","linkReferences":{}},"methodIdentifiers":{"allowance(address,address)":"dd62ed3e","approve(address,uint256)":"095ea7b3","balanceOf(address)":"70a08231","calculateExerciseCost(uint256)":"0410582b","decimals()":"313ce567","emergencyWithdraw()":"db2e21bc","exercise(uint256)":"b07f0a41","expirationDate()":"8f620487","expireOptions()":"eaa2b0b5","expired()":"4c2067c7","getContractBalance()":"6f9fb98a","getOptionInfo()":"f960f4c7","isExercisePeriod()":"fee183a0","issueOptions(uint256)":"4ed7157a","name()":"06fdde03","owner()":"8da5cb5b","renounceOwnership()":"715018a6","strikePrice()":"c52987cf","symbol()":"95d89b41","totalSupply()":"18160ddd","totalUnderlyingDeposited()":"b82c064d","transfer(address,uint256)":"a9059cbb","transferFrom(address,address,uint256)":"23b872dd","transferOwnership(address)":"f2fde38b","underlyingAsset()":"7158da7c"},"id":26}